:020000040800F2
:1000000000000220AD2D0008950B0008970B00089A
:10001000990B00089B0B00089D0B000800000000D6
:100020000000000000000000000000009F0B00081E
:10003000A10B000800000000A30B0008A50B00089E
:10004000FD2D0008FD2D0008FD2D0008FD2D0008E8
:10005000FD2D0008FD2D0008FD2D0008FD2D0008D8
:10006000FD2D0008FD2D0008FD2D0008FD2D0008C8
:10007000AD0B0008FD2D0008FD2D0008FD2D00082A
:10008000FD2D0008FD2D0008FD2D0008FD2D0008A8
:10009000ED0B0008FD2D0008FD2D0008FD2D0008CA
:1000A000FD2D0008FD2D0008FD2D0008FD2D000888
:1000B000FD2D0008FD2D0008FD2D0008FD2D000878
:1000C000FD2D0008FD2D0008FD2D0008FD2D000868
:1000D000FD2D0008BD0B0008FD2D0008CD0B00080C
:1000E000FD2D0008FD2D0008FD2D0008FD2D000848
:1000F000FD2D0008FD2D0008FD2D0008FD2D000838
:10010000FD2D0008FD2D0008FD2D0008FD2D000827
:10011000FD2D0008FD2D0008FD2D0008FD2D000817
:10012000FD2D0008FD2D0008FD2D0008FD2D000807
:10013000FD2D0008FD2D0008FD2D0008FD2D0008F7
:10014000FD2D0008FD2D0008FD2D0008FD2D0008E7
:10015000FD2D0008FD2D0008DD0B0008FD2D000819
:10016000FD2D0008FD2D0008FD2D0008FD2D0008C7
:10017000FD2D0008FD2D0008FD2D000800000000E9
:08018000FD2D0008FD2D000813
:1001900001F0FF01102A2BDB10F0070F08D010F838
:1001A000013B013A8B422DD010F0070F42B3F6D13C
:1001B000F0B441EA012141EA014122F007047FF055
:1001C00000070023F0E80256083C85EA010586EAAC
:1001D000010685FA47F5A3FA87F586FA47F6A5FAE8
:1001E00087F68EB9EED1F0BC01F0FF0102F00702F4
:1001F00032B110F8013B013A83EA010313B1F8D19F
:100200000020704701387047002D06BF354603387F
:10021000073815F0010F07D1013015F4807F02BFB8
:10022000013015F4C03F0130F0BC0138704700BF09
:1002300053B94AB9002908BF00281CBF4FF0FF314D
:100240004FF0FF3000F00CB8ADF1080C6DE904CEB2
:1002500003F090FADDF804E0DDE9022304B0704712
:10026000704700BF0348044B834202D0034B03B1E5
:10027000184770475C0000205C0000200000000070
:100280000548064B1B1AD90F01EBA301491002D0F8
:10029000034B03B1184770475C0000205C0000204E
:1002A0000000000010B5064C237843B9FFF7DAFFD1
:1002B000044B13B10448AFF300800123237010BD39
:1002C0005C00002000000000303A000808B5054B33
:1002D0001BB105490548AFF30080BDE80840FFF7B2
:1002E000CFBF00BF0000000060000020303A0008CF
:1002F000002863D00346002960D030B504784278E6
:1003000044EA0224C4F30A040C80427890F802E024
:100310004FEA4E1E4EEAD20ECEF30A0EA1F802E0CC
:100320008078DA78920042EA9012187942EA8022C4
:10033000C2F30A028A80187993F805C04FEACC1CF0
:100340004CEA500CCCF30A0CA1F806C05879C0F363
:100350000110887258798009C8729879DD7940EA6D
:1003600005208881187A5D7A40EA0520C881987A4C
:10037000DD7A40EA05200882187B8874587BC874AF
:10038000987BDD7B40EA05208882187C5B7C40EA14
:1003900003231BB20B81A4F580640C80AEF5806E44
:1003A000A1F802E0A2F580628A80ACF5806CA1F829
:1003B00006C09BB2A3F580630B8130BD704700007F
:1003C00030B58BB0002405940694079408940994E2
:1003D00001941E4B1A6B42F001021A631A6B02F071
:1003E00001020192019A02941A6B42F002021A630E
:1003F0001A6B02F002020292029A03941A6B42F004
:1004000004021A631A6B02F004020392039A049422
:100410001A6B42F080021A631B6B03F08003049393
:10042000049B0B4D22464FF4E051284601F0D0F8D2
:100430004FF4E0530593012306930794089405A90C
:10044000284600F0CFFF0BB030BD00BF003802409F
:10045000001C024010B582B000240094124B1A6BAD
:1004600042F480021A631A6B02F480020092009A2E
:1004700001941A6B42F400121A631B6B03F400130D
:100480000193019B224621460C2001F067FB0C20C2
:1004900001F074FB22462146462001F05FFB462016
:1004A00001F06CFB02B010BD003802402DE9F041B4
:1004B00092B000240D940E940F9410941194019412
:1004C000304B1A6C42F000721A641A6C02F000721F
:1004D0000192019A02941A6B42F008021A631B6B94
:1004E00003F008030293029B03270D974FF00208C5
:1004F000CDF8388001260F961097092311930DA986
:10050000214800F06FFF214D214B2B606F60AC60E4
:10051000EC604FF420232B614FF480136B612C7639
:100520006E76AC76EE762C776C77284601F0A5FBDC
:100530002822214603A802F09FFC099644F22003DA
:10054000039344F24003049344F2600305934FF491
:10055000814306930B9603A9284601F035FC2846F3
:1005600001F0CEFC4146284601F022FE22462146FB
:10057000142001F0F3FA142001F000FB12B0BDE8E2
:10058000F08100BF00380240000C02401C02002035
:100590000064004010B582B08E4694460F494FF477
:1005A00000720A6000228A60CA6008220A610C4A4E
:1005B0000412147050704FEA2E20907082F803E0FD
:1005C0004FEA2C20107182F805C018129071D37177
:1005D00001AB044801F0C2FC02B010BD04020020CF
:1005E000FC0100201C02002038B547490B88474811
:1005F00002885B429B1A9BB2454A1488A4B21B1B1B
:100600001BB2444C23800B8805885B1B9BB2B2F85D
:1006100002C01FFA8CFCA3EB0C031BB23E4D2B80D7
:100620000B8805882B449BB2B2F804C01FFA8CFCDF
:10063000A3EB0C031BB2394D2B80038809885B1A8E
:100640009BB2D28892B29B1A1BB2354A1380238880
:100650001BB2B3F5FA6F02DD4FF4FA6222802D4B24
:100660001B881BB213F5FA6F03DA2A4B4FF63002E0
:100670001A80294B1B881BB2B3F5FA6F03DD264B9A
:100680004FF4FA621A80244B1B881BB213F5FA6FE1
:1006900003DA214B4FF630021A80204B1B881BB225
:1006A000B3F5FA6F03DD1D4B4FF4FA621A801B4B52
:1006B0001B881BB213F5FA6F03DA184B4FF63002A2
:1006C0001A80174B1B881BB2B3F5FA6F03DD144B6E
:1006D0004FF4FA621A80124B1B881BB213F5FA6FA3
:1006E00003DA0F4B4FF630021A800A4B18880A4B78
:1006F00019880A4B1A880A4B1B881BB212B209B21E
:1007000000B2FFF747FF38BD00000020AA0100201B
:10071000D0010020B2010020B0010020AE01002075
:10072000AC01002070B58AB001AB03AA002101F032
:100730008AFC08B10AB070BD01F084FA344B18602D
:10074000344B039A1A601B68B3F5007FF2D9314B22
:100750001B68B3F5017FEDD82E4B1C68A4F2012471
:10076000002307E003F128026A4412F8241C2A4AF5
:10077000D1540133072BF5DD284B1A6801321A607A
:100780001A68274BA3FB0213DB094FF4FA6101FB44
:100790001323012B35D09DF804209DF8053043EA42
:1007A0000223204D25F814309DF806209DF80730CF
:1007B00043EA02231BB21C4820F814309DF808209D
:1007C0009DF8093043EA02231BB2184921F814307E
:1007D0009DF80A30164A1355164E56F82430013348
:1007E00046F824302B889BB2134C23800088134B8F
:1007F00018800988124B19801378DBB2114A1370E4
:1008000098E74FF40061104800F0E8FEC3E700BF2E
:10081000E8010020F8010020F0010020EC01002098
:10082000D34D6210D8010020D0010020C801002063
:10083000C4010020B4010020E6010020E4010020F2
:10084000E2010020E0010020001C024008B5074B37
:100850001B680BB9012008BD01F0F4F9034B1B68BC
:10086000C01A642894BF00200120F4E77C01002016
:100870000FB410B582B001F0E5F90446114B93F8BE
:100880004130DBB2202B09D001F0DCF9001B0A2833
:10089000F4D902B0BDE8104004B0704705AB019335
:1008A000049A4FF48071084802F0D8FA0028F0DD6D
:1008B000FF2800DDFF2082B20349024801F012FF49
:1008C000E7E700BF4C030020780000200268104BCF
:1008D0009A4200D0704710B50446436B012B0CD0F0
:1008E00012290BD012220B490B4802F02DFAE36BB0
:1008F0001A68136823F00803136010BD0749054800
:10090000FFF7F6FC01F09EF9054B1860EAE700BF1F
:1009100000480040980100200403002080010020CE
:100920007C01002003680E4A934200D0704710B546
:1009300082B0044600220192196801915B6801931C
:10094000019B426412220749074802F0FDF9E36B5C
:100950001A68136823F00803136002B010BD00BFCB
:1009600000480040980100200403002072B6FEE712
:1009700008B50A480A4B03604FF4E1334360002393
:100980008360C36003610C2242618361C36101F033
:1009900079FE00B908BDFFF7E9FF00BF4C03002056
:1009A0000010014008B50B480B4B03600B4B436034
:1009B0004FF4805383600023C3604FF48062026170
:1009C0000C2242618361C36101F05CFE00B908BD85
:1009D000FFF7CCFF0403002000480040A086010080
:1009E00000B595B03022002108A802F045FA002396
:1009F000039304930593069307930193204A116C84
:100A000041F080511164126C02F080520192019AFF
:100A100002931C4B1A6842F480421A601B6803F46C
:100A200080430293029B012308934FF48033099380
:100A300002230E934FF480020F9206221092A822F6
:100A4000119212930423139308A800F0A5F998B902
:100A50000F23039302230493002305934FF4A05321
:100A600006934FF480530793052103A800F0E4FB9D
:100A700020B915B05DF804FBFFF778FFFFF776FFAC
:100A8000003802400070004080B58CB001F0B4F82E
:100A9000FFF7A6FFFFF794FCFFF7DCFCFFF768FF0A
:100AA000FFF780FFFFF702FD00230B93304C236814
:100AB0001A680B925B680B930B9B12222D49204600
:100AC00002F042F9E36B1A68136823F0080313601D
:100AD00023E02949B1F906308A7AC87AB1F90C4085
:100AE000B1F90E50B1F910608F7C91F813C0B1F8D4
:100AF00014E0CDF820E0CDF81CC0069705960495CB
:100B00000394029001920093B1F90430B1F90220EC
:100B1000B1F900101948FFF7ABFE012001F098F879
:100B200001224FF48051164800F052FD124A5388BA
:100B30005B001BB213490B8013885B001BB2124A87
:100B40001380FFF751FD01F07DF8104B1B68C01AB0
:100B50006328E2D901F076F80C4B1860FFF776FEB7
:100B60000028B6D064210A48FFF782FED5E700BF0F
:100B7000040300209801002080010020703A000842
:100B8000001C024000000020AA0100207801002083
:100B9000483A0008FEE7FEE7FEE7FEE7FEE770479B
:100BA0007047704708B501F041F808BD08B5024824
:100BB00000F092FE08BD00BF4402002008B50248C4
:100BC00001F0BAFE08BD00BF4C03002008B5024882
:100BD00001F0B2FE08BD00BF0403002008B50248C2
:100BE00000F07AFE08BD00BFA402002008B502484C
:100BF00001F0FCFA08BD00BF1C02002082B00021F9
:100C000000910B4B5A6C42F480425A645A6C02F4C5
:100C100080420092009A01911A6C42F080521A644C
:100C20001B6C03F080530193019B02B0704700BF1F
:100C30000038024030B58BB004460023059306937C
:100C400007930893099303684A4A934204D04A4A97
:100C5000934248D00BB030BD00250195474B5A6CEC
:100C600042F010025A645A6C02F010020192019A8A
:100C700002951A6B42F002021A631B6B03F0020327
:100C80000293029BC0230593022306930323089338
:100C90000723099305A93A4800F0A4FB39483A4BC9
:100CA00003604FF00063436040238360C5604FF4EE
:100CB0008063036145618561C5614FF44033036220
:100CC000456200F011FD58B92E4BA3639C630022CE
:100CD0001146252000F042FF252000F04FFFB9E724
:100CE000FFF744FEF0E700250395244B1A6C42F40D
:100CF00080221A641A6C02F480220392039A0495EB
:100D00001A6B42F004021A631B6B03F00403049392
:100D1000049B4FF440630593022306930323089337
:100D20000723099305A9194800F05CFB1848194BE3
:100D300003604FF0006343608560C5604FF48063DB
:100D4000036145618561C5614FF4403303624562CB
:100D500000F0CAFC58B90E4BE3639C6300221146B5
:100D6000272000F0FBFE272000F008FF72E7FFF7C6
:100D7000FDFDF0E70010014000480040003802404F
:100D800000040240A4020020B864024000080240AF
:100D90004402002028600240002800F0E08170B585
:100DA00082B00446036813F0010F3BD09F4B9B6851
:100DB00003F00C03042B2CD09C4B9B6803F00C031A
:100DC000082B21D06368B3F5803F4FD0B3F5A02F37
:100DD00052D0964B1A6822F480321A601A6822F4B4
:100DE00080221A606368002B50D000F02BFF05466C
:100DF0008E4B1B6813F4003F14D100F023FF401BFF
:100E00006428F5D90320B1E1884B5B6813F4800FA7
:100E1000D8D0864B1B6813F4003F03D06368002BC7
:100E200000F09F81236813F0020F54D07F4B9B6822
:100E300013F00C0F3ED07D4B9B6803F00C03082B86
:100E400033D0E368002B68D0794B01221A6000F0A0
:100E5000F9FE0546754B1B6813F0020F54D100F0E4
:100E6000F1FE401B0228F5D903207FE16F4A136889
:100E700043F480331360B5E76C4B1A6842F4802268
:100E80001A601A6842F480321A60ABE700F0DAFEAA
:100E90000546664B1B6813F4003FC3D000F0D2FE3A
:100EA000401B6428F5D9032060E1604B5B6813F4B4
:100EB000800FC6D15D4B1B6813F0020F03D0E368AF
:100EC000012B40F05081594A136823F0F80321693F
:100ED00043EAC1031360236813F0080F42D063692B
:100EE0006BB3534B0122C3F8802E00F0ABFE0546D6
:100EF0004E4B5B6F13F0020F34D100F0A3FE401B8A
:100F00000228F5D9032031E1484A136823F0F80399
:100F1000216943EAC1031360DDE7454B00221A60F3
:100F200000F090FE0546414B1B6813F0020FD2D033
:100F300000F088FE401B0228F5D9032016E13C4B47
:100F40000022C3F8802E00F07DFE0546374B5B6F14
:100F500013F0020F06D000F075FE401B0228F5D9F1
:100F6000032003E1236813F0040F77D02F4B1B6C91
:100F700013F0805F33D1002301932C4B1A6C42F0A5
:100F800080521A641B6C03F080530193019B01256E
:100F9000284B1B6813F4807F23D0A368012B34D027
:100FA000052B38D0214B1A6F22F001021A671A6FF5
:100FB00022F004021A67A368002B3DD000F042FE25
:100FC00006461A4B1B6F13F0020F46D100F03AFE93
:100FD000801B41F288339842F3D90320C6E00025F4
:100FE000D6E7144A136843F48073136000F02AFEB6
:100FF0000646104B1B6813F4807FCED100F022FE12
:10100000801B0228F5D90320B0E0084A136F43F093
:1010100001031367CFE7054B1A6F42F004021A670A
:101020001A6F42F001021A67C5E700BF003802409C
:10103000000047420070004000F004FE0646524B9C
:101040001B6F13F0020F08D000F0FCFD801B41F273
:1010500088339842F3D9032088E0EDB9A369002BC7
:1010600000F08380484A926802F00C02082A51D0AE
:10107000022B17D0454B00221A6600F0E3FD044610
:10108000414B1B6813F0007F42D000F0DBFD001BDA
:101090000228F5D9032069E03B4A136C23F0805302
:1010A0001364DBE7394B00221A6600F0CBFD0546DE
:1010B000354B1B6813F0007F06D000F0C3FD401BCA
:1010C0000228F5D9032051E0E369226A1343626ADA
:1010D00043EA8213A26A5208013A43EA0243E26AEF
:1010E00043EA0263284A5360284B01221A6600F043
:1010F000A9FD0446244B1B6813F0007F06D100F0C5
:10110000A1FD001B0228F5D903202FE000202DE0CF
:1011100000202BE0012B2BD01B4B5B6803F48001DC
:10112000E269914226D103F03F02216A8A4223D12B
:10113000616A47F6C0721A40B2EB811F1ED103F4F8
:101140004031A26A5208013AB1EB024F18D103F0C4
:101150007063E26AB3EB026F14D1002006E0012055
:101160007047012002E0012000E0002002B070BDC5
:101170000120FBE70120F9E70120F7E70120F5E76F
:101180000120F3E70120F1E7003802400000474268
:1011900008B5264B9B6803F00C03042B41D0082BA9
:1011A00041D1224B5A6802F03F025B6813F4800F72
:1011B00012D01E4B5968C1F388111D480023A1FBB2
:1011C0000001FFF735F8194B5B68C3F301430133A6
:1011D0005B00B0FBF3F008BD144B5868C0F38810F7
:1011E0004FEA401CBCEB000C6EEB0E0E4FEA8E1368
:1011F00043EA9C634FEA8C11B1EB0C0163EB0E03E5
:10120000DB0043EA5173C90011EB000C43F100030A
:10121000990200234FEA8C2041EA9C51FFF708F81D
:10122000D1E70348D7E70348D5E700BF00380240BD
:10123000001BB7000024F400002800F09B8070B56C
:101240000D4604464F4B1B6803F007038B4208D240
:10125000CBB24C4A1370136803F007038B4240F083
:101260008B80236813F0020F17D013F0040F04D003
:10127000454A936843F4E0539360236813F0080FE2
:1012800004D0414A936843F4604393603E4A9368B4
:1012900023F0F003A1680B439360236813F0010F60
:1012A00032D06368012B21D09A1E012A25D9364AF3
:1012B000126812F0020F61D033498A6822F00302EB
:1012C00013438B6000F0BEFC06462F4B9B6803F077
:1012D0000C036268B3EB820F16D000F0B3FC801BE6
:1012E00041F288339842F0D9032042E0264A12683E
:1012F00012F4003FE0D101203BE0234A126812F0D3
:10130000007FD9D1012034E01E4B1B6803F0070396
:10131000AB4207D9EAB21B4B1A701B6803F00703F4
:10132000AB422DD1236813F0040F06D0164A936800
:1013300023F4E053E1680B439360236813F0080F34
:1013400007D0114A936823F46043216943EAC1033B
:101350009360FFF71DFF0C4B9B68C3F303130B4A0D
:10136000D35CD8400A4B18600A4B186800F01EFC8A
:10137000002070BD012070470120FAE70120F8E746
:101380000120F6E7003C024000380240E03A000845
:101390000800002004000020014B1868704700BFBF
:1013A0000800002008B5FFF7F7FF044B9B68C3F364
:1013B0008223034AD35CD84008BD00BF00380240F6
:1013C000D83A000808B5FFF7E7FF044B9B68C3F362
:1013D0004233034AD35CD84008BD00BF0038024006
:1013E000D83A000800230F2B00F2E98070B582B0D4
:1013F00065E085684FEA430E032404FA0EF425EAFB
:101400000405CC6804FA0EF42C438460446824EA92
:1014100002044A68C2F300129A40224342605CE030
:10142000DC08083450F8242003F00705AD004FF025
:101430000F0E0EFA05FE22EA0E0E0A69AA4042EAD3
:101440000E0240F824205CE0072200E0002202FAAD
:101450000EF22A4302345A4D45F82420594A946822
:101460006FEA0C0224EA0C054E6816F4801F01D0C6
:101470004CEA0405534CA560E46802EA04054E6892
:1014800016F4001F01D04CEA04054E4CE560646878
:1014900002EA04054E6816F4003F01D04CEA040548
:1014A000484C6560246822404D6815F4803F01D0A7
:1014B0004CEA0402434C226001330F2B7DD80122F9
:1014C0009A400C6804EA020C32EA0404F4D14C6835
:1014D00004F00304013C012C8BD94A6802F003029A
:1014E000032A09D0C4685D000322AA4024EA02044A
:1014F0008A68AA402243C2604A6802F00302022AB4
:101500008ED004684FEA430E032202FA0EF224EA58
:1015100002044A6802F0030202FA0EF22243026059
:101520004A6812F4403FC7D000220192264A546C08
:1015300044F480445464526C02F480420192019A53
:101540009C08A51C1E4A52F8255003F0030E4FEAD2
:101550008E0E0F2202FA0EF225EA02051B4A904275
:101560003FF474AF02F5806290421AD002F58062B7
:10157000904218D002F58062904216D002F5806247
:10158000904214D002F58062904212D002F580623F
:10159000904210D002F5806290423FF455AF08228D
:1015A00055E7012253E7022251E703224FE70422C5
:1015B0004DE705224BE7062249E702B070BD7047B0
:1015C00000380140003C0140003802400000024069
:1015D0000AB181617047090481617047436901EA7A
:1015E000030221EA030141EA02418161704730B4FC
:1015F00005682C6824F480242C6004686360836888
:10160000402B05D0036899600368DA6030BC7047EE
:1016100003689A600368D960F8E7000010B40368B3
:10162000D9B210390A4AA2FB01421209094CA25C44
:10163000C2655F2907D96FF3090304338365806DA1
:101640005DF8044B70476FF309038365F7E700BF4C
:10165000ABAAAAAAD03A0008836A826992B9012B80
:101660000AD0022B02D00BB100207047C36A13F0DE
:10167000807F28D100207047C36AB3F1C07F24D097
:1016800000207047B2F5005F09D0022B25D9032B4B
:1016900025D1C36A13F0807F23D100207047032B2C
:1016A00003D8DFE803F01404140A00207047C36A6B
:1016B00013F0807F0DD100207047C36AB3F1C07F63
:1016C00009D0002070470120704701207047012099
:1016D00070470120704701207047012070470020AB
:1016E000704701207047000070B5044600F0AAFA68
:1016F000002C5BD00546022384F83530002384F8A3
:1017000034302268136823F00103136023681A68D9
:1017100012F0010F0AD000F095FA431B052BF5D902
:1017200020236365032084F8350070BD1A682049C2
:1017300011406268A0680243E068024320690243E6
:1017400060690243A0690243E0690243206A0243E0
:101750000A43616A04291ED01A602668756925F05B
:101760000705636A1D43042B07D1A36A1D43E36A7F
:101770001BB12046FFF770FF90B975612046FFF757
:101780004DFFE26D3F23934083600020606501239D
:1017900084F83530C9E7E16A206B01430A43DBE78F
:1017A00040236365012084F83500BEE70120BCE7D3
:1017B0003F8010F038B50446856D90F8340001285C
:1017C0002BD0012084F8340094F83500C0B20128F1
:1017D00004D0002384F83430022038BD022084F87D
:1017E0003500002060652046FFF701FFE26D3F23D2
:1017F0009340AB602268136843F016031360236CB8
:1018000023B12268136843F0080313602268136849
:1018100043F0010313600020DFE70220DDE770B52D
:101820000446866D00F00EFA94F83530DBB2022BD8
:1018300006D080236365002384F83430012070BD16
:1018400005462268136823F0160313602268536963
:1018500023F080035361236CE3B12268136823F003
:10186000080313602268136823F0010313602368E0
:101870001B6813F0010F11D000F0E4F9431B052B96
:10188000F5D920236365032084F83500002384F80C
:101890003430D4E7A36C002BDFD1E3E7E26D3F23C4
:1018A0009340B360012384F83530002084F834007D
:1018B000C5E790F83530DBB2022B03D080234365B7
:1018C00001207047052380F835300268136823F043
:1018D0000103136000207047F0B583B00446002375
:1018E0000193724B1D68724BA3FB0535AD0A876DE2
:1018F0003E68C26D08239340334210D003681A68D3
:1019000012F0040F0BD01A6822F004021A60C26DA4
:1019100008239340BB60436D43F001034365E26DD0
:1019200001239340334209D02268526912F0800F9C
:1019300004D0BB60636D43F002036365E26D042372
:101940009340334209D02268126812F0020F04D08B
:10195000BB60636D43F004036365E26D1023934045
:10196000334224D02268126812F0080F1FD0BB60E7
:1019700023681A6812F4802F0DD01B6813F4002F0F
:1019800004D1236C9BB12046984710E0A36C73B13F
:10199000204698470BE01A6812F4807F03D11A683A
:1019A00022F008021A60236C0BB120469847E26DC2
:1019B00020239340334255D02268126812F0100F52
:1019C00050D0BB6094F83530DBB2052B0ED02368C5
:1019D0001A6812F4802F33D01B6813F4002F2AD119
:1019E000636C002B3ED0204698473BE0226813688A
:1019F00023F0160313602268536923F080035361B8
:101A0000236CA3B12268136823F008031360E26D0E
:101A10003F239340BB60012384F83530002384F8D2
:101A20003430236D002B3FD0204698473CE0A36C18
:101A3000002BE7D1EBE7E36BA3B12046984711E019
:101A40001A6812F4807F09D11A6822F010021A6015
:101A5000012384F83530002384F83430E36B0BB174
:101A600020469847636DFBB1636D13F0010F17D0EB
:101A7000052384F835302268136823F001031360CE
:101A8000019B01330193AB4204D823681B6813F018
:101A9000010FF5D1012384F83530002384F8343068
:101AA000E36C0BB12046984703B0F0BD080000205E
:101AB000B5814E1B002807DB00F01F0240090123FF
:101AC0009340024A42F82030704700BF00E100E036
:101AD000002808DB0901C9B200F1604000F561404F
:101AE00080F80013704700F00F000901C9B2014BE4
:101AF0001954704714ED00E000B500F00700C0F184
:101B0000070CBCF1040F28BF4FF0040C031D062B7B
:101B10000FD9C31E4FF0FF3E0EFA0CF021EA000170
:101B200099400EFA03FE22EA0E0241EA02005DF835
:101B300004FB0023EEE70000074AD36823F4E063C8
:101B40001B041B0C000200F4E060034343F0BF637E
:101B500043F40033D360704700ED00E010B5044655
:101B6000054BD868C0F30220FFF7C6FF01462046A8
:101B7000FFF7AEFF10BD00BF00ED00E008B5FFF7B6
:101B800099FF08BD0138B0F1807F0BD24FF0E02300
:101B90005861054AF02182F823100020986107223D
:101BA0001A6170470120704700ED00E010B504464F
:101BB0000E4B1A784FF47A73B3FBF2F30C4A1068A9
:101BC000B0FBF3F0FFF7DEFF68B90F2C01D901205D
:101BD0000AE0002221464FF0FF30FFF7BFFF054B20
:101BE0001C60002000E0012010BD00BF02000020AA
:101BF000080000200400002008B50B4B1A6842F4CE
:101C000000721A601A6842F480621A601A6842F41C
:101C100080721A600320FFF78FFF0F20FFF7C6FFC7
:101C2000FEF7ECFF002008BD003C0240034A1168AB
:101C3000034B1B780B441360704700BF94030020D4
:101C400002000020014B1868704700BF9403002079
:101C500038B50446FFF7F6FF0546B4F1FF3F02D062
:101C6000044B1B781C44FFF7EDFF401BA042FAD346
:101C700038BD00BF020000207047002800F0A1809E
:101C800038B5044690F82030D3B12268136843F089
:101C900001031360FFF7D6FF054623685A6812F068
:101CA000010F10D1FFF7CEFF401B0A28F5D9636A58
:101CB00043F400336362052384F82030012038BDEB
:101CC000FFF7DAFFE1E71A6822F002021A60FFF775
:101CD000B9FF054623685A6812F0020F0DD0FFF7CE
:101CE000B1FF401B0A28F5D9636A43F400336362ED
:101CF000052384F820300120E1E7227E012A3DD02F
:101D00001A6822F080021A60637E012B3BD02268A1
:101D1000136823F040031360A37E012B39D022689F
:101D2000136823F020031360E37E012B37D0226871
:101D3000136843F010031360237F012B35D0226812
:101D4000136823F008031360637F012B33D02268EC
:101D5000136823F004031360A368E2681343226945
:101D60001343626913436268013A21681343CB61EC
:101D700000206062012384F82030A0E71A6842F056
:101D800080021A60C0E72268136843F040031360C2
:101D9000C2E72268136843F020031360C4E7226897
:101DA000136823F010031360C6E72268136843F03A
:101DB00008031360C8E72268136843F00403136044
:101DC000CAE701207047000090F82030013BDBB2E9
:101DD000012B05D9436A43F48023436201207047F5
:101DE00030B5464BD3F8002242F00102C3F800227E
:101DF000D3F8002222F47C52C3F80022D3F8002248
:101E0000486A42EA0022C3F800224A6902F01F022F
:101E1000012000FA02F2D3F81C026FEA020C20EA59
:101E20000200C3F81C02CB69C3B9344BD3F80C02CF
:101E30000CEA0000C3F80C028C884869CD6844EABB
:101E40000544483043F830408C68088840EA044034
:101E50004C6904F1480E03EBCE035860CB69012BAB
:101E60001ED08B69002B33D12448D0F804320CEA01
:101E70000303C0F804320B698BBB2048D0F814323E
:101E80000CEA0303C0F814320B6A012B2ED01B4A54
:101E9000D2F8003223F00103C2F80032002030BD36
:101EA000164BD3F80C021043C3F80C028C88486917
:101EB0000D6844EA0544483043F8304088894C694D
:101EC0008D6840EA0540483403EBC4035860C8E716
:101ED0000A48D0F804321343C0F80432CBE707486D
:101EE000D0F814321343C0F81432CDE70349D1F8C7
:101EF0001C321343C1F81C32C9E700BF0064004024
:101F000070B5044690F82050EDB2012D06D0436A1A
:101F100043F4002343620125284670BD022380F864
:101F200020300268136823F001031360FFF78AFE74
:101F3000064623685B6813F0010F0CD0FFF782FEA2
:101F4000831B0A2BF5D9636A43F4003363620523CC
:101F500084F82030E0E700256562DDE730B590F8D1
:101F600020C00468A4680CF1FF3C5FFA8CFCBCF153
:101F7000010F62D814F0E05F59D0C4F3016C012462
:101F800004FA0CF41C608B68002B3DD10D68CB6803
:101F9000046843EA45550CF118031B01E55003683A
:101FA0000C690CF1180E03EB0E135C600B7D012B1A
:101FB00035D0D17993791B0443EA0163517943EA1F
:101FC000012314790168234301EB0C11C1F88C3112
:101FD000D17893781B0443EA0163517843EA0123E3
:101FE000117802680B4302EB0C12C2F888310268C8
:101FF0000CF1180C4FEA0C1C52F80C3043F00103A2
:1020000042F80C3000201DE04C6843EAC403CC6861
:1020100023430CF11804240105682B51BFE7036822
:1020200003EB0E13596841F480715960C1E7436AAC
:1020300043F400134362012004E0436A43F4802325
:102040004362012030BD90F820C00CF1FF3C5FFAE4
:102050008CFCBCF1010F00F2A58030B451B90468CA
:10206000E46814F0030F10D1436A43F40013436291
:1020700001207EE00468246914F0030F05D1436A4F
:1020800043F400134362012073E0056801F11B046F
:1020900024012C5904F004049460002C6BD10568D1
:1020A00001F11B0424012C59640D1460046801F132
:1020B0001B0C4FEA0C1C54F80C4004F00204D460D2
:1020C0000468A444DCF8045015F0080F5BD0082421
:1020D0001461046801F11B0C04EB0C146468C4F374
:1020E00007249461046804EB0C146468240C5461A4
:1020F000026802EB0112D2F8B8211A70026802EBF2
:102100000112D2F8B821C2F307225A70026802EB1A
:102110000112D2F8B821C2F307429A70026802EBAA
:102120000112D2F8B821120EDA70026802EB011225
:10213000D2F8BC211A71026802EB0112D2F8BC215C
:10214000C2F307225A71026802EB0112D2F8BC21D5
:10215000C2F307429A71026802EB0112D2F8BC2165
:10216000120EDA71C1B90268D36843F02003D3605C
:10217000002030BC7047056801F11B0424012C5974
:10218000E408546092E701F11B0504EB0514646850
:1021900004F00F0414619CE70268136943F0200304
:1021A0001361E5E7436A43F48023436201207047EB
:1021B00090F82030013BDBB2012B05D9436A43F490
:1021C0008023436201207047026853690B435361C7
:1021D00000207047704770477047704770477047DE
:1021E0007047704770477047704770472DE9F84F48
:1021F000054603685C69D3F804809F68D3F80CA097
:10220000D3F81090D3F818B014F001063BD017F0B3
:10221000010616D001229A6017F0020F08D117F0BC
:10222000040F0CD117F0080606D04FF4805608E0D2
:10223000FFF7D0FF002604E0FFF7CFFF01E04FF4E7
:10224000006617F4807F0DD02B684FF480729A607F
:1022500017F4007F40F0968017F4806F00F09680AE
:1022600046F4005617F4803F0DD02B684FF48032AF
:102270009A6017F4003F40F0938017F4802F00F02D
:10228000938046F4004614F0080F07D01AF0100FA0
:1022900004D046F400762B681022DA6014F0040FA4
:1022A00003D01AF0080F40F0898014F0020F05D017
:1022B0002B68DB6813F0030F40F0878014F0400FA9
:1022C00007D019F0100F04D046F480662B68102256
:1022D0001A6114F0200F02D019F0080F79D114F010
:1022E000100F04D02B681B6913F0030F78D114F47E
:1022F000003F02D018F0100F76D114F4803F02D0C6
:1023000018F0080F77D114F4004F37D018F0040FED
:1023100031D014F4807F04D01BF0010F01D046F0BF
:10232000010614F4007F04D01BF0020F01D046F028
:10233000020614F4806F04D01BF0040F01D046F0A5
:10234000040614F4006F16D01BF0700B13D0BBF111
:10235000400F66D056D8BBF1200F5CD0BBF1300FD8
:102360005CD0BBF1100F01D146F008062A689369D2
:1023700023F0700393612B6804225A60002E56D11B
:10238000BDE8F88F2846FFF726FF6BE717F4006FCC
:1023900002D046F4804665E72846FFF71FFF61E755
:1023A0002846FFF719FF6EE717F4002F02D046F416
:1023B000803668E72846FFF712FF64E72B6808229B
:1023C000DA602846FFF70CFF6FE72846FEF7AAF908
:1023D00074E72B6808221A612846FFF703FF7EE79F
:1023E0002846FFF7FEFE82E72B6810225A60284637
:1023F000FFF7F9FE81E72B6808225A602846FFF7AD
:10240000F3FE80E7BBF1500F0ED0BBF1600FADD1F2
:1024100046F48076AAE746F01006A7E746F02006C5
:10242000A4E746F04006A1E746F080069EE76B6A07
:1024300033436B622846FFF7D8FEA1E7034AD2F880
:10244000883043F47003C2F88830704700ED00E034
:1024500010B503460C4A0D490D48006840B10C48C0
:1024600000680344521A934206D8094A136010BD0B
:102470000748084C0460F2E700F006FD0C230360F7
:102480004FF0FF30F3E700BF00000220000400001F
:1024900098030020E8040020026802F10C0353E8CE
:1024A000003F23F0C0030C3242E800310029F3D191
:1024B000202380F841307047026802F10C0353E892
:1024C000003F23F490730C3242E800310029F3D12D
:1024D000026802F1140353E8003F23F001031432B1
:1024E00042E800310029F3D1036B012B05D02023F2
:1024F00080F84230002303637047026802F10C0346
:1025000053E8003F23F010030C3242E80031002969
:10251000F3D1ECE790F84130DBB2212B01D002205F
:1025200070478368B3F5805F17D0036A5A1C026254
:102530001A7803685A60C38C9BB2013B9BB2C38478
:102540004BB90268D36823F08003D3600268D36874
:1025500043F04003D360002070470369002BE4D1AF
:10256000036A1B880268C3F308035360036A0233DB
:102570000362E0E710B504460268136923F4405390
:10258000C1680B431361836802691A4343691A43A4
:10259000C3691A430168CB6823F4164323F00C0384
:1025A0001343CB600268536923F4407381690B4382
:1025B00053610368314A934206D002F58062934228
:1025C00002D0FEF7EFFE01E0FEF7FCFEE369B3F593
:1025D000004F29D00021031849411B1841F1000187
:1025E000C90041EA5371DB00181863684FEA83029F
:1025F0004FEA937341F10001FDF71AFE204AA2FB56
:1026000000314909642303FB11031B013233A2FB90
:1026100003235B0903F0F00202EB011203F00F0346
:10262000216813448B6010BD0023021843EB0301A3
:10263000121841F10001C90041EA5271D20010188C
:1026400041F10001626892185B41FDF7F1FD0C4A0F
:10265000A2FB00314909642303FB1103DB00323381
:10266000A2FB03235B095A0002F4F87202EB011289
:1026700003F00703216813448B60D4E70010014086
:102680001F85EB5160B310B5044690F8413013B389
:10269000242384F841302268D36823F40053D360A4
:1026A0002046FFF767FF2268136923F49043136104
:1026B0002268536923F02A0353612268D36843F4E4
:1026C0000053D36000206064202384F8413084F8F4
:1026D0004230606310BD80F84030FEF7ABFAD7E7B8
:1026E0000120704738B5134690F84120D2B2202A15
:1026F00036D10446002935D00BB9012031E0016202
:102700008384C38400224264212084F84100A06BAA
:10271000154DC563A06B154D0564A06B144DC564C4
:10272000A06B026522680432A06BFFF743F830B15A
:1027300010236364202384F84130012011E02368D2
:102740006FF040021A60226802F1140353E8003F60
:1027500043F08003143242E800310029F3D100E055
:10276000022038BD0120FCE777270008DF2700089A
:10277000ED270008704708B50346806B1B681B688F
:1027800013F4807F1AD10023C384026802F114037A
:1027900053E8003F23F08003143242E8003100295F
:1027A000F3D1026802F10C0353E8003F43F0400309
:1027B0000C3242E800310029F3D108BDFFF7DAFFFF
:1027C000FBE708B50168CA6822F04002CA6020220F
:1027D00080F84120FFF7CEFF002008BD704708B504
:1027E000806BFFF7FBFF08BD7047704710B5846B27
:1027F00023685A6994F84130DBB2212B10D023684A
:102800005A6902F0400294F84230DBB2222B11D018
:10281000636C43F0100363642046FEF783F810BD39
:1028200002F08002002AEAD00023E3842046FFF76A
:1028300033FEE4E7002AEBD00023E3852046FFF7D0
:102840003BFEE5E708B5806B0023C385FEF76AF819
:1028500008BD90F84230DBB2222B69D18368B3F512
:10286000805F4FD0826AB3F5805F04D0002B56D1D1
:102870000369002B53D103685B681370836A0133CB
:102880008362C38D9BB2013B9BB2C385002B51D1A8
:1028900000B583B00268D36823F02003D3600268D8
:1028A000D36823F48073D3600268536923F0010373
:1028B0005361202380F8423000234363036B012BD4
:1028C00033D100230363026802F10C0353E8003F95
:1028D00023F010030C3242E800310029F3D10368E1
:1028E0001A6812F0100F06D0002201921A680192A5
:1028F0005B680193019B818DFDF7E8FF002003B029
:102900005DF804FB0269002AACD1826A03685B6847
:10291000C3F308031380836A02338362B1E7036859
:102920005B6803F07F031370A8E7FFF75DFFE5E73F
:10293000022070470020704710B582B0044602683C
:102940001368D068516913F00F0F09D113F0200FED
:102950000CD010F0200F09D02046FFF77AFF16E0C8
:1029600011F0010115D110F4907F12D1216B0129D2
:1029700079D013F0800F03D010F0800F40F0218148
:1029800013F0400F03D010F0400F40F01E8102B052
:1029900010BD13F0010F06D010F4807F03D0626CDD
:1029A00042F00102626413F0040F04D019B1626CAA
:1029B00042F00202626413F0020F04D019B1626C9B
:1029C00042F00402626413F0080F07D010F0200FE9
:1029D00000D119B1626C42F008026264626C002A94
:1029E000D5D013F0200F02D010F0200F29D123688A
:1029F0005B6903F04003626C12F0080F00D163B30F
:102A00002046FFF759FD23685B6913F0400F20D083
:102A1000226802F1140353E8003F23F0400314320C
:102A200042E800310029F3D1E36B73B1694A1A65BA
:102A3000E06BFEF73EFF0028A9D0E06B036D9847DE
:102A4000A5E72046FFF705FFD1E72046FDF76AFF1F
:102A50009DE72046FDF766FF99E72046FDF762FFF8
:102A60000023636493E713F0100F82D010F0100F6F
:102A70003FF47FAF002301931368019353680193E0
:102A8000019B536913F0400F5FD0E26B13685B68E2
:102A90009BB2002B4AD0A18D994247D9E385D369D7
:102AA000B3F5807F37D0226802F10C0353E8003F72
:102AB00023F480730C3242E800310029F3D12268FC
:102AC00002F1140353E8003F23F00103143242E8FB
:102AD00000310029F3D1226802F1140353E8003FCA
:102AE00023F04003143242E800310029F3D12023BF
:102AF00084F8423000232363226802F10C0353E878
:102B0000003F23F010030C3242E800310029F3D1DA
:102B1000E06BFEF784FE02236363A18DE38D9BB21D
:102B2000C91A89B22046FDF7D1FE30E7A18D99423E
:102B30007FF42DAFD369B3F5807F7FF428AF0223F4
:102B400063632046FDF7C2FE21E7A18DE38D9BB2B2
:102B5000C91A89B2E38D9BB2002B3FF418AF00294C
:102B60003FF415AF226802F10C0353E8003F23F451
:102B700090730C3242E800300028F3D1226802F151
:102B8000140353E8003F23F00103143242E80030FD
:102B90000028F3D1202384F84230002323632268E5
:102BA00002F10C0353E8003F23F010030C3242E81B
:102BB00000300028F3D1022363632046FDF786FE30
:102BC000E5E62046FFF7A6FCE1E62046FFF7F9FD23
:102BD000DDE600BF4528000808B5806B012343638C
:102BE000036B012B02D0FFF700FE08BD818D490861
:102BF000FDF76CFEF9E708B50346806B1B681B68A0
:102C000013F4807F2BD10023C385026802F10C03EB
:102C100053E8003F23F480730C3242E8003100296E
:102C2000F3D1026802F1140353E8003F23F00103DB
:102C3000143242E800310029F3D1026802F1140392
:102C400053E8003F23F04003143242E800310029EA
:102C5000F3D1202380F84230036B012B07D00023EF
:102C60004363036B012B0FD0FFF7BEFD08BD026865
:102C700002F10C0353E8003F23F010030C3242E84A
:102C800000310029F3D1EAE7818DFDF71FFEEDE762
:102C900030B583B0044613468162828500224264C7
:102CA000222084F84200E06B244DC563E06B244D84
:102CB0000564E06B234DC564E06B026520680A463D
:102CC000011DE06BFEF776FD00282FD10023019354
:102CD00023681A6801925B680193019B23695BB1C9
:102CE000226802F10C0353E8003F43F480730C3276
:102CF00042E800310029F3D1226802F1140353E8BD
:102D0000003F43F00103143242E800310029F3D1BF
:102D1000226802F1140353E8003F43F040031432E9
:102D200042E800310029F3D103B030BD10236364C1
:102D3000202384F842300120F6E700BFF72B00087B
:102D4000D92B0008ED27000890F84230DBB2202B89
:102D500027D110B582B0044629B312B9012002B0C0
:102D600010BD0123036300234363FFF791FF236B2F
:102D7000012B01D00120F2E70023019323681A6898
:102D800001925B680193019B226802F10C0353E8F6
:102D9000003F43F010030C3242E800310029F3D128
:102DA000DDE7022070470120D9E70000DFF834D0CA
:102DB000FFF744FB0C480D490D4A002302E0D458AC
:102DC000C4500433C4188C42F9D30A4A0A4C002375
:102DD00001E013600432A242FBD300F05BF8FDF780
:102DE00053FE704700000220000000205C0000201D
:102DF000343B00085C000020E4040020FEE730B50E
:102E00001446002C9BB005461A4605DA8B23036056
:102E10004FF0FF301BB030BD4FF40273ADF80C30F3
:102E20004FF00003199314BF04F1FF3323460293BC
:102E300005934FF6FF7300910491ADF80E3069468B
:102E40001E9B00F0A9F8431CBCBF8B232B60002CF9
:102E5000E0D0009B00221A70DCE7000007B5009369
:102E600013460A46014603480068FFF7C8FF03B04F
:102E70005DF804FB0C00002002440346934200D19D
:102E8000704703F8011BF9E7014B1868704700BF52
:102E90000C00002070B50D4D0D4C641BA4100026D5
:102EA000A64209D10B4D0C4C00F0C2FD641BA410CE
:102EB0000026A64205D170BD55F8043B984701365F
:102EC000EEE755F8043B98470136F2E72C3B000843
:102ED0002C3B00082C3B0008303B00087047704733
:102EE0002DE9F0478E681F46BE420B6882460C46AD
:102EF00090462DD8B1F90C2012F4906F26D0656958
:102F0000096905EB4505A3EB010905EBD5757B1CAC
:102F10004B446D109D4238BF1D46530527D52946A9
:102F200000F058F9064660B321694A4600F0C2FB3A
:102F3000A38923F4906343F08003A3812661656134
:102F40004E44A5EB09052660A5603E46BE4200D969
:102F50003E4620683246414600F082FBA3689B1B38
:102F6000A3602368334423600020BDE8F0872A462D
:102F700000F048FB06460028E0D12169504600F0E9
:102F8000A7FB0C23CAF80030A38943F04003A381B8
:102F90004FF0FF30E9E700002DE9F04F98468B89AC
:102FA0001B069DB007460D46144610D50B6973B934
:102FB000402100F00FF92860286130B90C233B60F4
:102FC0004FF0FF301DB0BDE8F08F40236B61002350
:102FD000099320238DF82930CDF80C803023DFF8B9
:102FE0009C818DF82A304FF0010923469A4613F848
:102FF000012B0AB1252AF9D1BAEB040B0BD05B46A1
:10300000224629463846FFF76BFF013000F0A780C3
:10301000099A5A4409929AF80030002B00F09F80D8
:1030200000234FF0FF32CDE905230AF1010A049392
:1030300007938DF853301A935446052214F8011B58
:103040004E48FDF7A5F8049AD8B9D00644BF20230E
:103050008DF85330110744BF2B238DF853309AF865
:1030600000302A2B15D0079A544600204FF00A0C46
:10307000214611F8013B303B092B4BD9B0B10792E7
:1030800014E0A0EB080309FA03F313430493A246E8
:10309000D2E7039B191D1B680391002BBBBF5B424A
:1030A00042F0020207930793B8BF049223782E2BB5
:1030B0000AD163782A2B32D1039B1A1D1B68039215
:1030C00043EAE37302340593DFF8C0A021780322BA
:1030D0005046FDF75DF838B1049BA0EB0A00402292
:1030E000824013430134049314F8011B24488DF8E3
:1030F00028100622FDF74CF8002836D0214B1BBBC8
:10310000039B073323F0070308330393099B3344DE
:1031100009936AE70CFB02320C460120A8E7002362
:103120000134059319464FF00A0C204610F8012B84
:10313000303A092A03D9002BC6D00591C4E70CFB0D
:10314000012104460123F0E703AB00932A460E4B0E
:1031500004A93846AFF30080421C0646D6D1AB899D
:103160005B063FF52DAF09982CE703AB00932A4689
:10317000054B04A9384600F01BF9EDE7F03A0008CA
:10318000FA3A000800000000E12E0008F63A0008B4
:1031900070B50F4E0C463168054611B900F07AFA49
:1031A00030602146284600F075FA431C03D14FF0E9
:1031B000FF34204670BDC41C24F00304A042F8D0A4
:1031C000211A284600F066FA0130F2D1EFE700BF7D
:1031D000D80400202DE9F843CD1C25F0030508355F
:1031E0000C2D38BF0C25002D064601DBA94204D961
:1031F0000C2333600020BDE8F883DFF8D48000F0B2
:10320000F5F9D8F800301C4644BB29463046FFF794
:10321000BFFF431C044658D1D8F800402746002F72
:1032200043D1002C4BD023683946304604EB0309C8
:1032300000F030FA814542D121686D1A29463046A6
:10324000FFF7A6FF01303AD023682B442360D8F85B
:1032500000305A6862BBC8F800700FE02268521B49
:1032600020D40B2A17D96119A342256018BF5960D1
:10327000636808BFC8F8001062514B60304600F028
:10328000BBF904F10B00231D20F00700C21A1CBF7C
:103290001B1AA350AFE76268A3420CBFC8F8002016
:1032A0005A60EBE723466468AEE73C467F68B6E7C2
:1032B0001A465B68A342FBD100235360DEE70C2370
:1032C0003360304600F098F994E70560D6E700BF18
:1032D000DC0400202DE9F047164698468A680B6901
:1032E000DDF820909342B8BF1346336091F8432035
:1032F00007460C460AB1013333602368990642BF82
:10330000336802333360256815F0060506D104F1F1
:10331000190AE36832689B1AAB4226DC94F8433002
:103320002268003B18BF012392062BD404F143020C
:1033300041463846C84701301ED02368226903F051
:103340000603042B02BFE5683368ED1AA3680CBFBF
:1033500025EAE57500259342C4BF9B1AED180026A7
:103360001A34B5421AD1002008E0012352464146E2
:103370003846C847013003D14FF0FF30BDE8F08731
:103380000135C6E7E1185A1C302081F84300224479
:1033900094F8451082F843100233C7E70123224610
:1033A00041463846C8470130E6D00136D9E700002B
:1033B0002DE9FF470F7E0C9E782F914680460C46E4
:1033C0009A4601F1430207D8622F0AD8002F00F075
:1033D000D180582F00F0B88004F1420684F8427082
:1033E0003AE0A7F16303152BF6D801A151F823F0B9
:1033F000493400085D340008D9330008D933000887
:10340000D9330008D93300085D340008D9330008E7
:10341000D9330008D9330008D93300085B350008D8
:103420008734000815350008D9330008D93300085F
:103430007D350008D933000887340008D9330008E7
:10344000D93300081D35000833681A1D1B68326027
:1034500004F1420684F8423001239CE0336820687E
:10346000191D3160060601D51D6803E04506FBD530
:10347000B3F90050002D03DA2D236D4284F8433058
:1034800058480A2311E021683368080653F8045BA2
:1034900002D4490648BFADB26F2F5248336014BF03
:1034A0000A230823002184F843106668A660002ED2
:1034B00005DB21682E4321F0040121604BD0164624
:1034C000B5FBF3F103FB1157C75D06F8017D2F46ED
:1034D000BB420D46F4D9082B0BD12368DF0708D572
:1034E000236961689942DEBF302306F8013C06F18A
:1034F000FF36921B2261CDF800A04B4603AA21465D
:103500004046FFF7E7FE01304AD14FF0FF3004B0EC
:10351000BDE8F087236843F0200323603248782712
:1035200084F84570236831681F0651F8045B02D4A3
:103530005F0648BFADB23160D90744BF43F02003F6
:1035400023601DB11023ADE72648E9E7236823F087
:1035500020032360F6E71646BDE7336825686169F6
:10356000181D30602E061B6801D5196002E0680640
:10357000FBD51980002323611646BCE733681A1D6A
:1035800032601E68626800213046FCF701FE08B117
:10359000801B606063682361002384F84330AAE7DE
:1035A0002369324649464046D0470130ADD02368B2
:1035B0009B0713D4E068039B9842B8BF1846A6E760
:1035C0000123324649464046D04701309DD001355F
:1035D000E36803995B1AAB42F2DCEBE7002504F1E8
:1035E0001906F5E7013B0008123B00080148FFF708
:1035F00075BC00BFD40400200148FFF770BC00BFB9
:10360000D40400202DE9F041074614460D4621B9A7
:10361000BDE8F0411146FFF7DDBD2AB900F058F8CA
:1036200025462846BDE8F08100F09CF88442064615
:1036300002D8B4EB500FF4D821463846FFF7CAFD44
:10364000804608B94546ECE7B4422246294628BFE1
:10365000324600F02FF82946384600F039F8F1E7F5
:10366000884210B501EB020402D98442234607D8F0
:10367000431EA14208D011F8012B03F8012FF8E7EF
:10368000024401468A4200D110BD13F8014D02F8F0
:10369000014DF7E738B5064D0023044608462B6078
:1036A000FEF7D6FE431C02D12B6803B1236038BD60
:1036B000E00400200A44914200F1FF3300D170473A
:1036C00010B511F8014B03F8014F9142F9D110BD2B
:1036D00038B50546002941D051F8043C0C1F002B99
:1036E000B8BFE418FFF782FF1D4A136833B963605F
:1036F00014602846BDE83840FFF77EBFA34208D9D2
:10370000206821188B4201BF19685B680918216085
:10371000EDE71A465B680BB1A342FAD9116850185D
:10372000A0420BD120680144501883421160E0D1BF
:1037300018685B68536008441060DAE702D90C230C
:103740002B60D6E7206821188B4204BF19685B689C
:10375000636004BF091821605460CAE738BD00BF28
:10376000DC04002051F8043C181F002BBCBF0B5890
:10377000C01870472DE9F047089D0E4604460F46D5
:10378000002B4AD194468C45B2FA82F260D942B1FC
:10379000C2F12003974020FA03F30CFA02FC1F4306
:1037A00094404FEA1C4E1FFA8CF6B7FBFEF1230C37
:1037B0000EFB117743EA074301FB06F098420AD952
:1037C0001CEB030301F1FF3780F01581984240F2B2
:1037D0001281023963441B1AA4B2B3FBFEF00EFB44
:1037E000103344EA034400FB06F6A6420AD91CEB58
:1037F000040400F1FF3380F00081A64240F2FD8016
:103800006444023840EA0140A41B00211DB1D440A9
:103810000023C5E90043BDE8F0878B4205D90DB10F
:10382000C5E9000100210846F5E7B3FA83F1002954
:1038300046D1B34202D3824200F2F580841A66EB8D
:10384000030201201746002DE5D0C5E90047E2E755
:10385000002A40F09380A1EB0C034FEA1C471FFAAB
:103860008CFE0121B3FBF7F607FB1630230C43EA6D
:1038700000430EFB06F0984208D91CEB030306F147
:10388000FF3802D2984200F2D08046461B1AA4B2FA
:10389000B3FBF7F007FB103344EA03440EFB00FED2
:1038A000A64508D91CEB040400F1FF3302D2A6455B
:1038B00000F2B6801846A4EB0E0440EA0640A5E7E5
:1038C000C1F120078B4022FA07FC4CEA030C06FAF0
:1038D00001FE20FA07F426FA07F344EA0E0400FA80
:1038E00001F84FEA1C404FEA1449B3FBF0FE1FFAFF
:1038F0008CF600FB1E3349EA03430EFB06F999459B
:1039000002FA01F20BD91CEB03030EF1FF3A80F02F
:103910008580994540F28280AEF1020E6344A3EBAC
:103920000909A4B2B9FBF0F300FB139944EA094476
:1039300003FB06F6A64208D91CEB040403F1FF3092
:1039400068D2A64266D9023B644443EA0E40A41BF7
:10395000A0FB02E6B4427346B14652D34FD05DB1EC
:10396000B8EB030264EB090404FA07F722FA01F347
:103970001F43CC40C5E9007400214CE7C2F120018F
:1039800020FA01F30CFA02FC26FA01F196403343C7
:103990004FEA1C471FFA8CFEB1FBF7F007FB10162D
:1039A000190C41EA064100FB0EF68E4204FA02F4BD
:1039B00008D91CEB010100F1FF382DD28E422BD922
:1039C00002386144891B9BB2B1FBF7F607FB161165
:1039D00043EA014306FB0EF1994208D91CEB0303AD
:1039E00006F1FF3814D2994212D9023E63445B1AA1
:1039F00046EA004136E73946EDE6184602E7F0456B
:103A0000ADD2BEEB020366EB0C060138B146A6E769
:103A10004646ECE7034698E74046D3E7D6467EE7BE
:103A20006444023847E708460DE7023E63442DE749
:103A3000F8B500BFF8BC08BC9E467047F8B500BF9B
:083A4000F8BC08BC9E4670476B
:103A48005B52435D204F46464C494E4521206E6FE0
:103A5800206672616D6520666F72203E20256420A5
:103A68006D730D0A000000005B52435D20636830EF
:103A78003D253564206368313D253564206368320F
:103A88003D253564206368333D253564207C2073EB
:103A9800303D25642073313D2564207C206D6F7591
:103AA8007365202534642025346420253464204C33
:103AB800256420522564207C206B65793D3078256B
:103AC8003034580D0A0000000006101600061016C3
:103AD80000000000010203040000000000000000D4
:103AE8000102030406070809232D302B2000686C07
:103AF8004C00656667454647003031323334353609
:103B08003738394142434445460030313233343541
:0C3B18003637383961626364656600006E
:083B24006CC6FF7F01000000E8
:043B2C00CD020008BE
:043B3000A5020008E2
:103B3400DC050100100000000024F4001000002047
:103B4400000000009C030020040400206C040020FA
:103B54000000000000000000000000000000000061
:103B64000000000000000000000000000000000051
:103B74000000000000000000000000000000000041
:0C3B840000000000000000000000000035
:0400000508002DAD15
:00000001FF
